{"abi":[{"type":"constructor","inputs":[{"name":"responder_","type":"address","internalType":"address"}],"stateMutability":"nonpayable"},{"type":"function","name":"emergencyPause","inputs":[{"name":"incidentPayload","type":"bytes","internalType":"bytes"}],"outputs":[],"stateMutability":"nonpayable"},{"type":"function","name":"emergencyUnpause","inputs":[],"outputs":[],"stateMutability":"nonpayable"},{"type":"function","name":"lastPayload","inputs":[],"outputs":[{"name":"","type":"bytes","internalType":"bytes"}],"stateMutability":"view"},{"type":"function","name":"pauseCount","inputs":[],"outputs":[{"name":"","type":"uint256","internalType":"uint256"}],"stateMutability":"view"},{"type":"function","name":"paused","inputs":[],"outputs":[{"name":"","type":"bool","internalType":"bool"}],"stateMutability":"view"},{"type":"function","name":"responder","inputs":[],"outputs":[{"name":"","type":"address","internalType":"address"}],"stateMutability":"view"},{"type":"function","name":"revertOnPause","inputs":[],"outputs":[{"name":"","type":"bool","internalType":"bool"}],"stateMutability":"view"},{"type":"function","name":"setRevertOnPause","inputs":[{"name":"v","type":"bool","internalType":"bool"}],"outputs":[],"stateMutability":"nonpayable"},{"type":"event","name":"EmergencyPaused","inputs":[{"name":"caller","type":"address","indexed":true,"internalType":"address"},{"name":"payload","type":"bytes","indexed":false,"internalType":"bytes"}],"anonymous":false},{"type":"event","name":"EmergencyUnpaused","inputs":[{"name":"caller","type":"address","indexed":true,"internalType":"address"}],"anonymous":false}],"bytecode":{"object":"0x60803460b957601f6106a038819003918201601f19168301916001600160401b0383118484101760bd5780849260209460405283398101031260b957516001600160a01b03811680820360b957156083575f8054610100600160a81b03191660089290921b610100600160a81b03169190911790556040516105ce90816100d28239f35b60405162461bcd60e51b815260206004820152600e60248201526d3d32b937903932b9b837b73232b960911b6044820152606490fd5b5f80fd5b634e487b7160e01b5f52604160045260245ffdfe60806040526004361015610011575f80fd5b5f3560e01c80631624236d1461029457806319a85505146102725780632570c0821461025557806325efc91d1461022a5780634a4e3bd5146101d35780634cc2aa3c146100c65780635c975abb146100a55763feec8a2914610071575f80fd5b346100a15760203660031901126100a1576004358015158091036100a15760ff8019600354169116176003555f80f35b5f80fd5b346100a1575f3660031901126100a157602060ff5f54166040519015158152f35b346100a1575f3660031901126100a1576040516001545f6100e682610307565b8084526020840192600181169081156101ba5750600114610165575b50829003601f01601f191682019167ffffffffffffffff831181841017610151576040918391828452602083525180918160208501528484015e5f828201840152601f01601f19168101030190f35b634e487b7160e01b5f52604160045260245ffd5b905060015f527fb10e2d527612073b26eecdfd717e6a320cf44b4afac2b0732d9fcbe2b7fa0cf65f905b8282106101a457506020915083010183610102565b600181602092548385890101520191019061018f565b60ff1916845250151560051b8301602001905083610102565b346100a1575f3660031901126100a1575f546101fd33600883901c6001600160a01b03161461033f565b60ff19165f55337ff5cbf596165cc457b2cd92e8d8450827ee314968160a5696402d75766fc52caf5f80a2005b346100a1575f3660031901126100a1575f5460405160089190911c6001600160a01b03168152602090f35b346100a1575f3660031901126100a1576020600254604051908152f35b346100a1575f3660031901126100a157602060ff600354166040519015158152f35b346100a15760203660031901126100a15760043567ffffffffffffffff81116100a157366023820112156100a157806004013567ffffffffffffffff81116100a15736602482840101116100a1576024610305926102ff60018060a01b035f5460081c16331461033f565b0161037b565b005b90600182811c92168015610335575b602083101461032157565b634e487b7160e01b5f52602260045260245ffd5b91607f1691610316565b1561034657565b60405162461bcd60e51b815260206004820152600d60248201526c3737ba103932b9b837b73232b960991b6044820152606490fd5b60ff6003541661055d575f5460ff81166105585760ff19166001175f5567ffffffffffffffff8211610151576103b2600154610307565b601f81116104ea575b50815f601f8211600114610467575f9161045c575b508260011b905f198460031b1c1916176001555b600254905f1982146104485760017fd4ae89ec8b69aeba92dfdc12af79fec811c16840305cea1abf690df3a2f61626920160025582604051916020835281602084015260408301375f604084830101526040813394601f80199101168101030190a2565b634e487b7160e01b5f52601160045260245ffd5b90508101355f6103d0565b9050601f1983169060015f52837fb10e2d527612073b26eecdfd717e6a320cf44b4afac2b0732d9fcbe2b7fa0cf6925f5b8181106104cf5750106104b6575b5050600182811b016001556103e4565b8201355f19600385901b60f8161c191690555f806104a6565b85840135855560019094019360209384019387935001610498565b828111156103bb5760015f52601f830160051c9060208410610550575b601f82910160051c03905f5b8281106105215750506103bb565b5f8282017fb10e2d527612073b26eecdfd717e6a320cf44b4afac2b0732d9fcbe2b7fa0cf60155600101610513565b5f9150610507565b505050565b60405162461bcd60e51b81526020600482015260136024820152721b5bd8dace88199bdc98d959081c995d995c9d606a1b6044820152606490fdfea264697066735822122060adc3580b5d6f13b656e600d97e4addce6c405b982e91f112bff05c59762f5f64736f6c63430008210033","linkReferences":{}},"methodIdentifiers":{"emergencyPause(bytes)":"1624236d","emergencyUnpause()":"4a4e3bd5","lastPayload()":"4cc2aa3c","pauseCount()":"2570c082","paused()":"5c975abb","responder()":"25efc91d","revertOnPause()":"19a85505","setRevertOnPause(bool)":"feec8a29"},"id":30}