{"abi":[{"type":"constructor","inputs":[{"name":"_admin","type":"address","internalType":"address"}],"stateMutability":"nonpayable"},{"type":"function","name":"admin","inputs":[],"outputs":[{"name":"","type":"address","internalType":"address"}],"stateMutability":"view"},{"type":"function","name":"allowedCallers","inputs":[{"name":"","type":"address","internalType":"address"}],"outputs":[{"name":"","type":"bool","internalType":"bool"}],"stateMutability":"view"},{"type":"function","name":"emergencyUnpause","inputs":[],"outputs":[],"stateMutability":"nonpayable"},{"type":"function","name":"getIncidentInfo","inputs":[],"outputs":[{"name":"paused","type":"bool","internalType":"bool"},{"name":"incidentBlock","type":"uint256","internalType":"uint256"},{"name":"threatType","type":"uint8","internalType":"uint8"},{"name":"details","type":"bytes","internalType":"bytes"},{"name":"totalIncidents","type":"uint256","internalType":"uint256"}],"stateMutability":"view"},{"type":"function","name":"handleIncident","inputs":[{"name":"_threatType","type":"uint8","internalType":"uint8"},{"name":"_details","type":"bytes","internalType":"bytes"}],"outputs":[],"stateMutability":"nonpayable"},{"type":"function","name":"incidentCount","inputs":[],"outputs":[{"name":"","type":"uint256","internalType":"uint256"}],"stateMutability":"view"},{"type":"function","name":"isOperational","inputs":[],"outputs":[{"name":"","type":"bool","internalType":"bool"}],"stateMutability":"view"},{"type":"function","name":"isPaused","inputs":[],"outputs":[{"name":"","type":"bool","internalType":"bool"}],"stateMutability":"view"},{"type":"function","name":"lastDetails","inputs":[],"outputs":[{"name":"","type":"bytes","internalType":"bytes"}],"stateMutability":"view"},{"type":"function","name":"lastIncidentBlock","inputs":[],"outputs":[{"name":"","type":"uint256","internalType":"uint256"}],"stateMutability":"view"},{"type":"function","name":"lastThreatType","inputs":[],"outputs":[{"name":"","type":"uint8","internalType":"uint8"}],"stateMutability":"view"},{"type":"function","name":"setAllowed","inputs":[{"name":"caller","type":"address","internalType":"address"},{"name":"allowed","type":"bool","internalType":"bool"}],"outputs":[],"stateMutability":"nonpayable"},{"type":"event","name":"CallerAllowanceChanged","inputs":[{"name":"caller","type":"address","indexed":true,"internalType":"address"},{"name":"allowed","type":"bool","indexed":false,"internalType":"bool"}],"anonymous":false},{"type":"event","name":"EmergencyUnpaused","inputs":[{"name":"triggeredBy","type":"address","indexed":true,"internalType":"address"},{"name":"blockNumber","type":"uint256","indexed":false,"internalType":"uint256"}],"anonymous":false},{"type":"event","name":"IncidentDetected","inputs":[{"name":"triggeredBy","type":"address","indexed":true,"internalType":"address"},{"name":"blockNumber","type":"uint256","indexed":false,"internalType":"uint256"},{"name":"threatType","type":"uint8","indexed":false,"internalType":"uint8"},{"name":"details","type":"bytes","indexed":false,"internalType":"bytes"}],"anonymous":false}],"bytecode":{"object":"0x608034607e57601f6108c238819003918201601f19168301916001600160401b03831184841017608257808492602094604052833981010312607e57516001600160a01b0381168103607e575f8054610100600160a81b03191660089290921b610100600160a81b031691909117905560405161082b90816100978239f35b5f80fd5b634e487b7160e01b5f52604160045260245ffdfe6080806040526004361015610012575f80fd5b5f3560e01c9081632724b3eb14610370575080634697f05d146102e45780634a4e3bd5146102385780637b334154146101fb5780639b90a912146101db578063a09b86ac146101be578063b187bd261461019d578063cd905dff1461017d578063e88c4f9d1461011f578063ea3f6175146100ec578063eb1f4289146100cf5763f851a440146100a0575f80fd5b346100cb575f3660031901126100cb575f5460405160089190911c6001600160a01b03168152602090f35b5f80fd5b346100cb575f3660031901126100cb576020600254604051908152f35b346100cb575f3660031901126100cb5761011b6101076106d5565b604051918291602083526020830190610679565b0390f35b346100cb575f3660031901126100cb5760ff5f54166002549060ff600354166101736005549161014d6106d5565b90604051958695151586526020860152604085015260a0606085015260a0840190610679565b9060808301520390f35b346100cb575f3660031901126100cb57602060ff5f541615604051908152f35b346100cb575f3660031901126100cb57602060ff5f54166040519015158152f35b346100cb575f3660031901126100cb576020600554604051908152f35b346100cb575f3660031901126100cb57602060ff60035416604051908152f35b346100cb5760203660031901126100cb576001600160a01b0361021c610663565b165f526001602052602060ff60405f2054166040519015158152f35b346100cb575f3660031901126100cb575f5461026233600883901c6001600160a01b0316146107a9565b60ff81161561029f5760ff19165f556040514381527fdacac23d353cc4fe05be85350ed1e8227ed9edf2323b7cb5aad3174e6a9ce1d660203392a2005b60405162461bcd60e51b815260206004820152601e60248201527f536166654775617264526573706f6e6465723a206e6f742070617573656400006044820152606490fd5b346100cb5760403660031901126100cb576102fd610663565b602435908115158092036100cb5760207f46e4615e9b938567221c4a573d0a3c91fc92f6fa21b0ae059f6b1e3333e3fd5e9161034660018060a01b035f5460081c1633146107a9565b60018060a01b031692835f526001825260405f2060ff1981541660ff8316179055604051908152a2005b346100cb5760403660031901126100cb5760043560ff81168091036100cb576024359067ffffffffffffffff82116100cb57366023830112156100cb5781600401359267ffffffffffffffff84116100cb5736602485850101116100cb57335f52600160205260ff60405f2054161561062157505f5460ff81166105d15760019060ff1916175f55436002558060ff19600354161760035561041360045461069d565b601f8111610563575b50825f601f82116001146104da575f916104cc575b508360011b905f198560031b1c1916176004555b600554915f1983146104b8576024849160017fd3583611f690f557a7b19614ca5322a9a37eb1f0904dd04912f117c8e53bb4799501600555604051934385526020850152606060408501528260608501520160808301375f608084830101526080813394601f80199101168101030190a2005b634e487b7160e01b5f52601160045260245ffd5b602491508301013584610431565b9050601f1984169060045f52847f8a35acfbc15ff81a39ae7d344fd709f28e8600b4aa8c65c6b64bfe7fe36bd19b925f5b818110610545575010610529575b5050600183811b01600455610445565b8301602401355f19600386901b60f8161c191690558380610519565b8684016024013585556001909401936020938401938893500161050b565b8381111561041c5760045f52601f840160051c90602085106105c9575b601f82910160051c03905f5b82811061059a57505061041c565b5f8282017f8a35acfbc15ff81a39ae7d344fd709f28e8600b4aa8c65c6b64bfe7fe36bd19b015560010161058c565b5f9150610580565b60405162461bcd60e51b815260206004820152602260248201527f536166654775617264526573706f6e6465723a20616c72656164792070617573604482015261195960f21b6064820152608490fd5b62461bcd60e51b815260206004820152601f60248201527f536166654775617264526573706f6e6465723a206e6f7420616c6c6f776564006044820152606490fd5b600435906001600160a01b03821682036100cb57565b805180835260209291819084018484015e5f828201840152601f01601f1916010190565b90600182811c921680156106cb575b60208310146106b757565b634e487b7160e01b5f52602260045260245ffd5b91607f16916106ac565b604051905f6004546106e68161069d565b808552906001811690811561078d5750600114610737575b50829003601f01601f1916820167ffffffffffffffff81118382101761072357604052565b634e487b7160e01b5f52604160045260245ffd5b60045f9081529091507f8a35acfbc15ff81a39ae7d344fd709f28e8600b4aa8c65c6b64bfe7fe36bd19b5b8282106107775750602091508301015f6106fe565b6001816020925483858901015201910190610762565b90506020925060ff191682850152151560051b8301015f6106fe565b156107b057565b60405162461bcd60e51b815260206004820152601d60248201527f536166654775617264526573706f6e6465723a206e6f742061646d696e0000006044820152606490fdfea26469706673582212202723b5025ca8446ec2f209a8d828d704801f600f54653d5d3e0c9d3094f4b33d64736f6c63430008210033","linkReferences":{}},"methodIdentifiers":{"admin()":"f851a440","allowedCallers(address)":"7b334154","emergencyUnpause()":"4a4e3bd5","getIncidentInfo()":"e88c4f9d","handleIncident(uint8,bytes)":"2724b3eb","incidentCount()":"a09b86ac","isOperational()":"cd905dff","isPaused()":"b187bd26","lastDetails()":"ea3f6175","lastIncidentBlock()":"eb1f4289","lastThreatType()":"9b90a912","setAllowed(address,bool)":"4697f05d"},"id":25}