{"abi":[{"type":"constructor","inputs":[{"name":"_droseraOperator","type":"address","internalType":"address"}],"stateMutability":"nonpayable"},{"type":"function","name":"droseraOperator","inputs":[],"outputs":[{"name":"","type":"address","internalType":"address"}],"stateMutability":"view"},{"type":"function","name":"emergencyPause","inputs":[{"name":"_reportedImpl","type":"address","internalType":"address"},{"name":"_expectedImpl","type":"address","internalType":"address"},{"name":"_threatType","type":"uint8","internalType":"uint8"}],"outputs":[],"stateMutability":"nonpayable"},{"type":"function","name":"emergencyUnpause","inputs":[],"outputs":[],"stateMutability":"nonpayable"},{"type":"function","name":"getIncidentInfo","inputs":[],"outputs":[{"name":"paused","type":"bool","internalType":"bool"},{"name":"incidentBlock","type":"uint256","internalType":"uint256"},{"name":"reportedImpl","type":"address","internalType":"address"},{"name":"threatType","type":"uint8","internalType":"uint8"},{"name":"totalIncidents","type":"uint256","internalType":"uint256"}],"stateMutability":"view"},{"type":"function","name":"incidentCount","inputs":[],"outputs":[{"name":"","type":"uint256","internalType":"uint256"}],"stateMutability":"view"},{"type":"function","name":"isOperational","inputs":[],"outputs":[{"name":"","type":"bool","internalType":"bool"}],"stateMutability":"view"},{"type":"function","name":"isPaused","inputs":[],"outputs":[{"name":"","type":"bool","internalType":"bool"}],"stateMutability":"view"},{"type":"function","name":"lastIncidentBlock","inputs":[],"outputs":[{"name":"","type":"uint256","internalType":"uint256"}],"stateMutability":"view"},{"type":"function","name":"lastReportedImplementation","inputs":[],"outputs":[{"name":"","type":"address","internalType":"address"}],"stateMutability":"view"},{"type":"function","name":"lastThreatType","inputs":[],"outputs":[{"name":"","type":"uint8","internalType":"uint8"}],"stateMutability":"view"},{"type":"event","name":"EmergencyPauseTriggered","inputs":[{"name":"triggeredBy","type":"address","indexed":true,"internalType":"address"},{"name":"blockNumber","type":"uint256","indexed":false,"internalType":"uint256"},{"name":"reportedImplementation","type":"address","indexed":false,"internalType":"address"},{"name":"expectedImplementation","type":"address","indexed":false,"internalType":"address"},{"name":"threatType","type":"uint8","indexed":false,"internalType":"uint8"}],"anonymous":false},{"type":"event","name":"EmergencyUnpaused","inputs":[{"name":"triggeredBy","type":"address","indexed":true,"internalType":"address"},{"name":"blockNumber","type":"uint256","indexed":false,"internalType":"uint256"}],"anonymous":false}],"bytecode":{"object":"0x608060405234801561000f575f5ffd5b50604051610b02380380610b02833981810160405281019061003191906100d5565b805f60016101000a81548173ffffffffffffffffffffffffffffffffffffffff021916908373ffffffffffffffffffffffffffffffffffffffff16021790555050610100565b5f5ffd5b5f73ffffffffffffffffffffffffffffffffffffffff82169050919050565b5f6100a48261007b565b9050919050565b6100b48161009a565b81146100be575f5ffd5b50565b5f815190506100cf816100ab565b92915050565b5f602082840312156100ea576100e9610077565b5b5f6100f7848285016100c1565b91505092915050565b6109f58061010d5f395ff3fe608060405234801561000f575f5ffd5b506004361061009c575f3560e01c8063a09b86ac11610064578063a09b86ac14610120578063b187bd261461013e578063cd905dff1461015c578063e88c4f9d1461017a578063eb1f42891461019c5761009c565b80634a4e3bd5146100a05780634a8378e3146100aa57806375ab8957146100c657806377cff5c3146100e45780639b90a91214610102575b5f5ffd5b6100a86101ba565b005b6100c460048036038101906100bf9190610645565b6102fe565b005b6100ce6104c6565b6040516100db91906106a4565b60405180910390f35b6100ec6104eb565b6040516100f991906106a4565b60405180910390f35b61010a610510565b60405161011791906106cc565b60405180910390f35b610128610523565b60405161013591906106fd565b60405180910390f35b610146610529565b6040516101539190610730565b60405180910390f35b61016461053a565b6040516101719190610730565b60405180910390f35b61018261054f565b604051610193959493929190610749565b60405180910390f35b6101a46105ab565b6040516101b191906106fd565b60405180910390f35b5f60019054906101000a900473ffffffffffffffffffffffffffffffffffffffff1673ffffffffffffffffffffffffffffffffffffffff163373ffffffffffffffffffffffffffffffffffffffff1614610249576040517f08c379a0000000000000000000000000000000000000000000000000000000008152600401610240906107f4565b60405180910390fd5b5f5f9054906101000a900460ff16610296576040517f08c379a000000000000000000000000000000000000000000000000000000000815260040161028d9061085c565b60405180910390fd5b5f5f5f6101000a81548160ff0219169083151502179055503373ffffffffffffffffffffffffffffffffffffffff167fdacac23d353cc4fe05be85350ed1e8227ed9edf2323b7cb5aad3174e6a9ce1d6436040516102f491906106fd565b60405180910390a2565b5f60019054906101000a900473ffffffffffffffffffffffffffffffffffffffff1673ffffffffffffffffffffffffffffffffffffffff163373ffffffffffffffffffffffffffffffffffffffff161461038d576040517f08c379a0000000000000000000000000000000000000000000000000000000008152600401610384906107f4565b60405180910390fd5b5f5f9054906101000a900460ff16156103db576040517f08c379a00000000000000000000000000000000000000000000000000000000081526004016103d2906108ea565b60405180910390fd5b60015f5f6101000a81548160ff021916908315150217905550436001819055508260025f6101000a81548173ffffffffffffffffffffffffffffffffffffffff021916908373ffffffffffffffffffffffffffffffffffffffff16021790555080600260146101000a81548160ff021916908360ff16021790555060035f81548092919061046890610935565b91905055503373ffffffffffffffffffffffffffffffffffffffff167f70d0317625527604bc21949f6d306ad0239bfabf6b22418f7245b6a943cf724d438585856040516104b9949392919061097c565b60405180910390a2505050565b5f60019054906101000a900473ffffffffffffffffffffffffffffffffffffffff1681565b60025f9054906101000a900473ffffffffffffffffffffffffffffffffffffffff1681565b600260149054906101000a900460ff1681565b60035481565b5f5f9054906101000a900460ff1681565b5f5f5f9054906101000a900460ff1615905090565b5f5f5f5f5f5f5f9054906101000a900460ff1660015460025f9054906101000a900473ffffffffffffffffffffffffffffffffffffffff16600260149054906101000a900460ff16600354945094509450945094509091929394565b60015481565b5f5ffd5b5f73ffffffffffffffffffffffffffffffffffffffff82169050919050565b5f6105de826105b5565b9050919050565b6105ee816105d4565b81146105f8575f5ffd5b50565b5f81359050610609816105e5565b92915050565b5f60ff82169050919050565b6106248161060f565b811461062e575f5ffd5b50565b5f8135905061063f8161061b565b92915050565b5f5f5f6060848603121561065c5761065b6105b1565b5b5f610669868287016105fb565b935050602061067a868287016105fb565b925050604061068b86828701610631565b9150509250925092565b61069e816105d4565b82525050565b5f6020820190506106b75f830184610695565b92915050565b6106c68161060f565b82525050565b5f6020820190506106df5f8301846106bd565b92915050565b5f819050919050565b6106f7816106e5565b82525050565b5f6020820190506107105f8301846106ee565b92915050565b5f8115159050919050565b61072a81610716565b82525050565b5f6020820190506107435f830184610721565b92915050565b5f60a08201905061075c5f830188610721565b61076960208301876106ee565b6107766040830186610695565b61078360608301856106bd565b61079060808301846106ee565b9695505050505050565b5f82825260208201905092915050565b7f536166654775617264526573706f6e6465723a20756e617574686f72697a65645f82015250565b5f6107de60208361079a565b91506107e9826107aa565b602082019050919050565b5f6020820190508181035f83015261080b816107d2565b9050919050565b7f536166654775617264526573706f6e6465723a206e6f742070617573656400005f82015250565b5f610846601e8361079a565b915061085182610812565b602082019050919050565b5f6020820190508181035f8301526108738161083a565b9050919050565b7f536166654775617264526573706f6e6465723a20616c726561647920706175735f8201527f6564000000000000000000000000000000000000000000000000000000000000602082015250565b5f6108d460228361079a565b91506108df8261087a565b604082019050919050565b5f6020820190508181035f830152610901816108c8565b9050919050565b7f4e487b71000000000000000000000000000000000000000000000000000000005f52601160045260245ffd5b5f61093f826106e5565b91507fffffffffffffffffffffffffffffffffffffffffffffffffffffffffffffffff820361097157610970610908565b5b600182019050919050565b5f60808201905061098f5f8301876106ee565b61099c6020830186610695565b6109a96040830185610695565b6109b660608301846106bd565b9594505050505056fea2646970667358221220cb7916d05e4b88bf52dd83c669aacbf58c694cc252fd13d6a4251e132706357164736f6c63430008210033","linkReferences":{}},"methodIdentifiers":{"droseraOperator()":"75ab8957","emergencyPause(address,address,uint8)":"4a8378e3","emergencyUnpause()":"4a4e3bd5","getIncidentInfo()":"e88c4f9d","incidentCount()":"a09b86ac","isOperational()":"cd905dff","isPaused()":"b187bd26","lastIncidentBlock()":"eb1f4289","lastReportedImplementation()":"77cff5c3","lastThreatType()":"9b90a912"},"id":0}