{"abi":[{"type":"constructor","inputs":[{"name":"initialAdmin","type":"address","internalType":"address"},{"name":"initialRelayer","type":"address","internalType":"address"},{"name":"registry_","type":"address","internalType":"address"}],"stateMutability":"nonpayable"},{"type":"function","name":"admin","inputs":[],"outputs":[{"name":"","type":"address","internalType":"address"}],"stateMutability":"view"},{"type":"function","name":"allowedCallers","inputs":[{"name":"","type":"address","internalType":"address"}],"outputs":[{"name":"","type":"bool","internalType":"bool"}],"stateMutability":"view"},{"type":"function","name":"executedIncidentHash","inputs":[{"name":"","type":"bytes32","internalType":"bytes32"}],"outputs":[{"name":"","type":"bool","internalType":"bool"}],"stateMutability":"view"},{"type":"function","name":"globallyPaused","inputs":[],"outputs":[{"name":"","type":"bool","internalType":"bool"}],"stateMutability":"view"},{"type":"function","name":"handleIncident","inputs":[{"name":"rawPayload","type":"bytes","internalType":"bytes"}],"outputs":[],"stateMutability":"nonpayable"},{"type":"function","name":"incidentCount","inputs":[],"outputs":[{"name":"","type":"uint256","internalType":"uint256"}],"stateMutability":"view"},{"type":"function","name":"lastDetails","inputs":[],"outputs":[{"name":"","type":"bytes","internalType":"bytes"}],"stateMutability":"view"},{"type":"function","name":"lastIncidentBlock","inputs":[],"outputs":[{"name":"","type":"uint256","internalType":"uint256"}],"stateMutability":"view"},{"type":"function","name":"lastSafeProxy","inputs":[],"outputs":[{"name":"","type":"address","internalType":"address"}],"stateMutability":"view"},{"type":"function","name":"lastThreatType","inputs":[],"outputs":[{"name":"","type":"uint8","internalType":"uint8"}],"stateMutability":"view"},{"type":"function","name":"registry","inputs":[],"outputs":[{"name":"","type":"address","internalType":"contract SafeGuardianRegistry"}],"stateMutability":"view"},{"type":"function","name":"relayer","inputs":[],"outputs":[{"name":"","type":"address","internalType":"address"}],"stateMutability":"view"},{"type":"function","name":"setAdmin","inputs":[{"name":"newAdmin","type":"address","internalType":"address"}],"outputs":[],"stateMutability":"nonpayable"},{"type":"function","name":"setAllowedCaller","inputs":[{"name":"caller","type":"address","internalType":"address"},{"name":"allowed","type":"bool","internalType":"bool"}],"outputs":[],"stateMutability":"nonpayable"},{"type":"function","name":"setGlobalPause","inputs":[{"name":"paused_","type":"bool","internalType":"bool"}],"outputs":[],"stateMutability":"nonpayable"},{"type":"function","name":"setRelayer","inputs":[{"name":"newRelayer","type":"address","internalType":"address"}],"outputs":[],"stateMutability":"nonpayable"},{"type":"event","name":"AdminUpdated","inputs":[{"name":"oldAdmin","type":"address","indexed":true,"internalType":"address"},{"name":"newAdmin","type":"address","indexed":true,"internalType":"address"}],"anonymous":false},{"type":"event","name":"AllowedCallerUpdated","inputs":[{"name":"caller","type":"address","indexed":true,"internalType":"address"},{"name":"allowed","type":"bool","indexed":false,"internalType":"bool"}],"anonymous":false},{"type":"event","name":"DownstreamPauseAttempt","inputs":[{"name":"target","type":"address","indexed":true,"internalType":"address"},{"name":"success","type":"bool","indexed":false,"internalType":"bool"}],"anonymous":false},{"type":"event","name":"GlobalPauseStateSet","inputs":[{"name":"paused","type":"bool","indexed":false,"internalType":"bool"}],"anonymous":false},{"type":"event","name":"IncidentHandled","inputs":[{"name":"incidentHash","type":"bytes32","indexed":true,"internalType":"bytes32"},{"name":"caller","type":"address","indexed":true,"internalType":"address"},{"name":"safeProxy","type":"address","indexed":true,"internalType":"address"},{"name":"threatType","type":"uint8","indexed":false,"internalType":"uint8"},{"name":"currentBlockNumber","type":"uint256","indexed":false,"internalType":"uint256"},{"name":"previousBlockNumber","type":"uint256","indexed":false,"internalType":"uint256"},{"name":"details","type":"bytes","indexed":false,"internalType":"bytes"}],"anonymous":false},{"type":"event","name":"RelayerUpdated","inputs":[{"name":"oldRelayer","type":"address","indexed":true,"internalType":"address"},{"name":"newRelayer","type":"address","indexed":true,"internalType":"address"}],"anonymous":false}],"bytecode":{"object":"0x60a03461016c57601f61104e38819003918201601f19168301916001600160401b038311848410176101705780849260609460405283398101031261016c5761004781610184565b61005f604061005860208501610184565b9301610184565b6001600160a01b0390911691821561013a576001600160a01b0316908115610106576001600160a01b03169182156100d15760018060a01b03195f5416175f5560018060a01b03196001541617600155608052604051610eb5908161019982396080518181816103cb01526109df0152f35b60405162461bcd60e51b815260206004820152600d60248201526c7a65726f20726567697374727960981b6044820152606490fd5b60405162461bcd60e51b815260206004820152600c60248201526b3d32b937903932b630bcb2b960a11b6044820152606490fd5b60405162461bcd60e51b815260206004820152600a6024820152693d32b9379030b236b4b760b11b6044820152606490fd5b5f80fd5b634e487b7160e01b5f52604160045260245ffd5b51906001600160a01b038216820361016c5756fe6080806040526004361015610012575f80fd5b5f3560e01c90816308ce3fb51461068e5750806315fd154c146105cc5780636548e9bc1461051a57806369a6b3db146104a2578063704b6c02146103fa5780637b103999146103b65780637b334154146103795780638406c0791461035157806398c8e5eb146103255780639b90a91214610305578063a09b86ac146102e8578063a0aad97b146102b9578063d8b0e716146101f6578063ea3f617514610114578063eb1f4289146100f75763f851a440146100cc575f80fd5b346100f3575f3660031901126100f3575f546040516001600160a01b039091168152602090f35b5f80fd5b346100f3575f3660031901126100f3576020600654604051908152f35b346100f3575f3660031901126100f3576040515f600754610134816106c6565b80845290600181169081156101d25750600114610174575b6101708361015c818503826106fe565b604051918291602083526020830190610734565b0390f35b91905060075f527fa66cc928b5edb82af9bd49922954155ab7b0942694bea4ce44661d9a8736c688915f905b8082106101b85750909150810160200161015c61014c565b9192600181602092548385880101520191019092916101a0565b60ff191660208086019190915291151560051b8401909101915061015c905061014c565b346100f35760403660031901126100f35761020f6106b0565b602435908115158092036100f35761023160018060a01b035f54163314610e47565b6001600160a01b03169081156102865760207fd6fc3082ae3a144ca59421d96180398241c1dd021d45d5a24fb5bf96c9f8212f91835f526003825260405f2060ff1981541660ff8316179055604051908152a2005b60405162461bcd60e51b815260206004820152600b60248201526a3d32b9379031b0b63632b960a91b6044820152606490fd5b346100f35760203660031901126100f3576004355f526004602052602060ff60405f2054166040519015158152f35b346100f3575f3660031901126100f3576020600254604051908152f35b346100f3575f3660031901126100f357602060ff60055416604051908152f35b346100f3575f3660031901126100f35760055460405160089190911c6001600160a01b03168152602090f35b346100f3575f3660031901126100f3576001546040516001600160a01b039091168152602090f35b346100f35760203660031901126100f3576001600160a01b0361039a6106b0565b165f526003602052602060ff60405f2054166040519015158152f35b346100f3575f3660031901126100f3576040517f00000000000000000000000000000000000000000000000000000000000000006001600160a01b03168152602090f35b346100f35760203660031901126100f3576104136106b0565b5f546001600160a01b0381169161042b338414610e47565b6001600160a01b03169182156104705782907f101b8081ff3b56bbf45deb824d86a3b0fd38b7e3dd42421105cf8abe9106db0b5f80a36001600160a01b031916175f55005b60405162461bcd60e51b815260206004820152600a6024820152693d32b9379030b236b4b760b11b6044820152606490fd5b346100f35760203660031901126100f3576004358015158091036100f35760207f8ca71e78d5ea98cbde63fc6e2be6509b7977e35907fc933ed09415b7081ab61c916104f860018060a01b035f54163314610e47565b6001805460ff60a01b191660a083901b60ff60a01b16179055604051908152a1005b346100f35760203660031901126100f3576105336106b0565b61054760018060a01b035f54163314610e47565b6001600160a01b0316801561059857600154816001600160a01b0382167f605ca4e43489fb38b91aa63dd9147cd3847957694b080b9285ec898b34269f0c5f80a36001600160a01b03191617600155005b60405162461bcd60e51b815260206004820152600c60248201526b3d32b937903932b630bcb2b960a11b6044820152606490fd5b346100f35760203660031901126100f35760043567ffffffffffffffff81116100f357366023820112156100f357806004013567ffffffffffffffff81116100f35736602482840101116100f3576001546001600160a01b031633148015610678575b15610642576024610640920161079e565b005b60405162461bcd60e51b815260206004820152600e60248201526d1b9bdd08185d5d1a1bdc9a5e995960921b6044820152606490fd5b50335f52600360205260ff60405f20541661062f565b346100f3575f3660031901126100f35760209060ff60015460a01c1615158152f35b600435906001600160a01b03821682036100f357565b90600182811c921680156106f4575b60208310146106e057565b634e487b7160e01b5f52602260045260245ffd5b91607f16916106d5565b90601f8019910116810190811067ffffffffffffffff82111761072057604052565b634e487b7160e01b5f52604160045260245ffd5b805180835260209291819084018484015e5f828201840152601f01601f1916010190565b92919267ffffffffffffffff82116107205760405191610782601f8201601f1916602001846106fe565b8294818452818301116100f3578281602093845f960137010152565b919060ff60015460a01c16610e0f578083016020848203126100f357833567ffffffffffffffff81116100f357840160a0818303126100f3576040519160a0830183811067ffffffffffffffff82111761072057604052813560ff811681036100f35783526020820135906001600160a01b03821682036100f3576020840191825260408401906040840135825260608501936060810135855260808101359067ffffffffffffffff82116100f357019080601f830112156100f35781602061086993359101610758565b6080850190815260ff85511615610dd95782516001600160a01b031615610da5578151845111610d735761089e36878a610758565b6020815191012092835f52600460205260ff60405f205416610d68575f848152600460205260409020805460ff191660011790556002545f198114610d545760010160025560ff86511660055490610100600160a81b03835160081b16916affffffffffffffffffffff60a81b16171760055543600655815180519067ffffffffffffffff8211610720576109346007546106c6565b601f8111610ce6575b50602090601f8311600114610c3d5791807f76dd4a069797a4249fbb161f502a2c0c3c93c0bf740ddf30a109aca43d93c5229695949260ff945f92610c32575b50508160011b915f199060031b1c1916176007555b60018060a01b03905116965116915194519051946040519283526020830152604082015260806060820152806109cd33956080830190610734565b0390a46040516331ff1dab60e11b81527f00000000000000000000000000000000000000000000000000000000000000006001600160a01b031691905f81600481865afa908115610b74575f91610b87575b505f5b8151811015610b7f5760018060a01b0360208260051b840101511690604051634bbce8d360e11b8152826004820152602081602481895afa908115610b74575f91610b3a575b5015610b3157813b156100f357600191604051631624236d60e01b815260206004820152856024820152858960448301375f604487830101525f81604481601f19601f8b0116810103018183865af19081610b21575b50610af8577f5b730ea888f8fbeab7c7745ba20d29300a9a2494aa7889d033e636e13f09b38160205f5b6040519015158152a25b01610a22565b7f5b730ea888f8fbeab7c7745ba20d29300a9a2494aa7889d033e636e13f09b381602084610ae8565b5f610b2b916106fe565b5f610abe565b60019150610af2565b90506020813d8211610b6c575b81610b54602093836106fe565b810103126100f3575180151581036100f3575f610a68565b3d9150610b47565b6040513d5f823e3d90fd5b505050509050565b90503d805f833e610b9881836106fe565b8101906020818303126100f35780519067ffffffffffffffff82116100f3570181601f820112156100f35780519167ffffffffffffffff8311610720578260051b9160405193610beb60208501866106fe565b84526020808501938201019182116100f357602001915b818310610c12575050505f610a1f565b82516001600160a01b03811681036100f357815260209283019201610c02565b015190505f8061097d565b90601f1983169160075f527fa66cc928b5edb82af9bd49922954155ab7b0942694bea4ce44661d9a8736c688925f5b818110610cce575092600192859260ff967f76dd4a069797a4249fbb161f502a2c0c3c93c0bf740ddf30a109aca43d93c5229a99989610610cb6575b505050811b01600755610992565b01515f1960f88460031b161c191690555f8080610ca8565b92936020600181928786015181550195019301610c6c565b8281111561093d5760075f52601f830160051c9060208410610d4c575b601f82910160051c03905f5b828110610d1d57505061093d565b5f8282017fa66cc928b5edb82af9bd49922954155ab7b0942694bea4ce44661d9a8736c6880155600101610d0f565b5f9150610d03565b634e487b7160e01b5f52601160045260245ffd5b505050505050509050565b60405162461bcd60e51b815260206004820152600a60248201526962616420626c6f636b7360b01b6044820152606490fd5b60405162461bcd60e51b815260206004820152600c60248201526b696e76616c6964207361666560a01b6044820152606490fd5b60405162461bcd60e51b815260206004820152600e60248201526d1a5b9d985b1a59081d1a1c99585d60921b6044820152606490fd5b60405162461bcd60e51b815260206004820152601060248201526f1c995cdc1bdb99195c881c185d5cd95960821b6044820152606490fd5b15610e4e57565b60405162461bcd60e51b81526020600482015260096024820152683737ba1030b236b4b760b91b6044820152606490fdfea26469706673582212205a839acf1a7e5e4b5ea76cf73daf357584f6d320bb98f78ecbe13af6bdb9e0f464736f6c63430008210033","linkReferences":{}},"methodIdentifiers":{"admin()":"f851a440","allowedCallers(address)":"7b334154","executedIncidentHash(bytes32)":"a0aad97b","globallyPaused()":"08ce3fb5","handleIncident(bytes)":"15fd154c","incidentCount()":"a09b86ac","lastDetails()":"ea3f6175","lastIncidentBlock()":"eb1f4289","lastSafeProxy()":"98c8e5eb","lastThreatType()":"9b90a912","registry()":"7b103999","relayer()":"8406c079","setAdmin(address)":"704b6c02","setAllowedCaller(address,bool)":"d8b0e716","setGlobalPause(bool)":"69a6b3db","setRelayer(address)":"6548e9bc"},"id":27}