{"abi":[{"type":"constructor","inputs":[{"name":"initialOwner","type":"address","internalType":"address"}],"stateMutability":"nonpayable"},{"type":"function","name":"approvedTargets","inputs":[{"name":"","type":"address","internalType":"address"}],"outputs":[{"name":"","type":"bool","internalType":"bool"}],"stateMutability":"view"},{"type":"function","name":"getTargets","inputs":[],"outputs":[{"name":"","type":"address[]","internalType":"address[]"}],"stateMutability":"view"},{"type":"function","name":"owner","inputs":[],"outputs":[{"name":"","type":"address","internalType":"address"}],"stateMutability":"view"},{"type":"function","name":"setOwner","inputs":[{"name":"newOwner","type":"address","internalType":"address"}],"outputs":[],"stateMutability":"nonpayable"},{"type":"function","name":"setTarget","inputs":[{"name":"target","type":"address","internalType":"address"},{"name":"approved","type":"bool","internalType":"bool"}],"outputs":[],"stateMutability":"nonpayable"},{"type":"function","name":"targets","inputs":[{"name":"","type":"uint256","internalType":"uint256"}],"outputs":[{"name":"","type":"address","internalType":"address"}],"stateMutability":"view"},{"type":"function","name":"targetsLength","inputs":[],"outputs":[{"name":"","type":"uint256","internalType":"uint256"}],"stateMutability":"view"},{"type":"event","name":"OwnerUpdated","inputs":[{"name":"oldOwner","type":"address","indexed":true,"internalType":"address"},{"name":"newOwner","type":"address","indexed":true,"internalType":"address"}],"anonymous":false},{"type":"event","name":"TargetApprovalUpdated","inputs":[{"name":"target","type":"address","indexed":true,"internalType":"address"},{"name":"approved","type":"bool","indexed":false,"internalType":"bool"}],"anonymous":false}],"bytecode":{"object":"0x60803460a657601f61058838819003918201601f19168301916001600160401b0383118484101760aa5780849260209460405283398101031260a657516001600160a01b0381169081900360a65780156074575f80546001600160a01b0319169190911790556040516104c990816100bf8239f35b60405162461bcd60e51b815260206004820152600a6024820152693d32b9379037bbb732b960b11b6044820152606490fd5b5f80fd5b634e487b7160e01b5f52604160045260245ffdfe60806040526004361015610011575f80fd5b5f3560e01c80630a39ce02146103d75780631044646e146103ba57806313af40351461031257806363fe3b561461023557806380ffe77f146100ce5780638da5cb5b146100a757639779d1a614610066575f80fd5b346100a35760203660031901126100a3576001600160a01b03610087610445565b165f526001602052602060ff60405f2054166040519015158152f35b5f80fd5b346100a3575f3660031901126100a3575f546040516001600160a01b039091168152602090f35b346100a35760403660031901126100a3576100e7610445565b60243590811515908183036100a35761010a60018060a01b035f5416331461045b565b6001600160a01b031691821561020257806101eb575b61016a575b60207f711f79f9522de655084e5d2bce72f10481d5d3a6036ffae60a0761cf6fb6549891835f526001825260405f2060ff1981541660ff8316179055604051908152a2005b600254680100000000000000008110156101d7577f711f79f9522de655084e5d2bce72f10481d5d3a6036ffae60a0761cf6fb65498916101b282600160209401600255610419565b81546001600160a01b0360039290921b91821b19169086901b17905591506101259050565b634e487b7160e01b5f52604160045260245ffd5b50815f52600160205260ff60405f20541615610120565b60405162461bcd60e51b815260206004820152600b60248201526a1e995c9bc81d185c99d95d60aa1b6044820152606490fd5b346100a3575f3660031901126100a3576040518060206002549182815201809160025f527f405787fa12a823e0f2b7631cc41b3ba8828b3321ca811111fa75cd3aa3bb5ace905f5b8181106102f357505050829003601f01601f191682019167ffffffffffffffff8311818410176101d75790829182604052602083019060208452518091526040830191905f5b8181106102d1575050500390f35b82516001600160a01b03168452859450602093840193909201916001016102c3565b82546001600160a01b031684526020909301926001928301920161027d565b346100a35760203660031901126100a35761032b610445565b5f546001600160a01b0381169161034333841461045b565b6001600160a01b03169182156103885782907f8292fce18fa69edf4db7b94ea2e58241df0ae57f97e0a6c9b29067028bf92d765f80a36001600160a01b031916175f55005b60405162461bcd60e51b815260206004820152600a6024820152693d32b9379037bbb732b960b11b6044820152606490fd5b346100a3575f3660031901126100a3576020600254604051908152f35b346100a35760203660031901126100a3576004356002548110156100a357610400602091610419565b905460405160039290921b1c6001600160a01b03168152f35b6002548110156104315760025f5260205f2001905f90565b634e487b7160e01b5f52603260045260245ffd5b600435906001600160a01b03821682036100a357565b1561046257565b60405162461bcd60e51b81526020600482015260096024820152683737ba1037bbb732b960b91b6044820152606490fdfea2646970667358221220feb2a80af19904a1a11c7f66dd05083725a6a90a7d88cf61557128b653f69cc664736f6c63430008210033","linkReferences":{}},"methodIdentifiers":{"approvedTargets(address)":"9779d1a6","getTargets()":"63fe3b56","owner()":"8da5cb5b","setOwner(address)":"13af4035","setTarget(address,bool)":"80ffe77f","targets(uint256)":"0a39ce02","targetsLength()":"1044646e"},"id":28}