{"abi":[{"type":"function","name":"collect","inputs":[],"outputs":[{"name":"","type":"bytes","internalType":"bytes"}],"stateMutability":"view"},{"type":"function","name":"shouldRespond","inputs":[{"name":"data","type":"bytes[]","internalType":"bytes[]"}],"outputs":[{"name":"","type":"bool","internalType":"bool"},{"name":"","type":"bytes","internalType":"bytes"}],"stateMutability":"pure"}],"bytecode":{"object":"0x6080604052348015600e575f5ffd5b506121818061001c5f395ff3fe608060405234801561000f575f5ffd5b5060043610610034575f3560e01c806344e6e4ce14610038578063e522538114610069575b5f5ffd5b610052600480360381019061004d9190610e84565b610087565b604051610060929190610f59565b60405180910390f35b6100716106bd565b60405161007e9190610f87565b60405180910390f35b5f606060028484905010156100af575f60405180602001604052805f815250915091506106b6565b5f84845f8181106100c3576100c2610fa7565b5b90506020028101906100d59190610fe0565b9050148061010957505f848460018181106100f3576100f2610fa7565b5b90506020028101906101059190610fe0565b9050145b15610127575f60405180602001604052805f815250915091506106b6565b5f84845f81811061013b5761013a610fa7565b5b905060200281019061014d9190610fe0565b81019061015a91906112f3565b90505f8585600181811061017157610170610fa7565b5b90506020028101906101839190610fe0565b81019061019091906112f3565b9050815f01516101d1576001826040015183606001516040516020016101b79291906113ae565b6040516020818303038152906040529350935050506106b6565b5f73ffffffffffffffffffffffffffffffffffffffff16826020015173ffffffffffffffffffffffffffffffffffffffff161415801561025557507334cfac646f301356faa8b21e94227e3583fe3f5f73ffffffffffffffffffffffffffffffffffffffff16826020015173ffffffffffffffffffffffffffffffffffffffff1614155b156102a15760017334cfac646f301356faa8b21e94227e3583fe3f5f8360200151604051602001610287929190611441565b6040516020818303038152906040529350935050506106b6565b805f015180156102b15750815f01515b15610312578060c001518260c001511415806102d557508060e001518260e0015114155b156103115760018160c001518360c001516040516020016102f79291906114c5565b6040516020818303038152906040529350935050506106b6565b5b805f015180156103225750815f01515b1561039e5780610100015173ffffffffffffffffffffffffffffffffffffffff1682610100015173ffffffffffffffffffffffffffffffffffffffff161461039d576001816101000151836101000151604051602001610383929190611549565b6040516020818303038152906040529350935050506106b6565b5b805f015180156103ae5750815f01515b1561042e57806040015182604001511415806103d257508060600151826060015114155b806103e557508060800151826080015114155b1561042d576001816040015183604001518360600151856060015160405160200161041394939291906115cd565b6040516020818303038152906040529350935050506106b6565b5b5f816101a0015111801561044b5750806101a00151826101a00151105b156104d3575f826101a00151826101a001516104679190611650565b90505f826101a001516127108361047e9190611683565b61048891906116f1565b90506101f481106104d0576001836101a00151856101a00151836040516020016104b49392919061176b565b60405160208183030381529060405295509550505050506106b6565b50505b6002868690501115610623575f86866001898990506104f29190611650565b81811061050257610501610fa7565b5b90506020028101906105149190610fe0565b8080601f0160208091040260200160405190810160405280939291908181526020018383808284375f81840152601f19601f8201169050808301925050505050505090505f81511115610621575f81806020019051810190610576919061194e565b90505f816101a001511180156105955750806101a00151846101a00151105b1561061f575f846101a00151826101a001516105b19190611650565b90505f826101a00151612710836105c89190611683565b6105d291906116f1565b90506105dc811061061c576001836101a00151876101a00151836040516020016105fe939291906119c4565b604051602081830303815290604052975097505050505050506106b6565b50505b505b505b805f015180156106335750815f01515b1561069f578060a001518260a00151118015610662575060058160a001518360a001516106609190611650565b115b1561069e5760018160a001518360a00151604051602001610684929190611a56565b6040516020818303038152906040529350935050506106b6565b5b5f60405180602001604052805f8152509350935050505b9250929050565b60605f5f5f5f5f6106e1731db92e2eebc8e0c075a02bea49a2935bcd2dfcf46108ff565b945094509450945094505f610709731db92e2eebc8e0c075a02bea49a2935bcd2dfcf4610b3f565b90505f5f61072a731db92e2eebc8e0c075a02bea49a2935bcd2dfcf4610be6565b915091505f61074c731db92e2eebc8e0c075a02bea49a2935bcd2dfcf4610ca9565b90505f731db92e2eebc8e0c075a02bea49a2935bcd2dfcf473ffffffffffffffffffffffffffffffffffffffff163190505f6107b073ae7ab96520de3a18e5e111b5eaab095312d7fe84731db92e2eebc8e0c075a02bea49a2935bcd2dfcf4610d70565b90505f6107e573d5f7838f5c461feff7fe49ea5ebaf7728bb0adfa731db92e2eebc8e0c075a02bea49a2935bcd2dfcf4610d70565b90505f61081a73e3c063b1bee9de02eb28352b55d49d85514c67ff731db92e2eebc8e0c075a02bea49a2935bcd2dfcf4610d70565b90505f8183858761082b9190611a90565b6108359190611a90565b61083f9190611a90565b9050604051806101c001604052808f151581526020018a73ffffffffffffffffffffffffffffffffffffffff1681526020018e81526020018d81526020018c81526020018b81526020018981526020018881526020018773ffffffffffffffffffffffffffffffffffffffff168152602001868152602001858152602001848152602001838152602001828152506040516020016108dd9190611c1d565b6040516020818303038152906040529e50505050505050505050505050505090565b5f5f5f5f5f5f863b90505f8103610927575f5f5f5f5f1b5f9550955095509550955050610b36565b5f8773ffffffffffffffffffffffffffffffffffffffff1663e75235b86040518163ffffffff1660e01b8152600401602060405180830381865afa92505050801561099057506040513d601f19601f8201168201806040525081019061098d9190611c37565b60015b6109ac575f5f5f5f5f1b5f965096509650965096505050610b36565b809150505f5f8973ffffffffffffffffffffffffffffffffffffffff1663a0e67e2b6040518163ffffffff1660e01b81526004015f60405180830381865afa925050508015610a1d57506040513d5f823e3d601f19601f82011682018060405250810190610a1a9190611d22565b60015b610a3b575f5f5f5f5f1b5f9850985098509850985050505050610b36565b8051925080604051602001610a509190611e11565b604051602081830303815290604052805190602001209150505f8a73ffffffffffffffffffffffffffffffffffffffff1663affed0e06040518163ffffffff1660e01b8152600401602060405180830381865afa925050508015610ad257506040513d601f19601f82011682018060405250810190610acf9190611c37565b60015b610af1575f5f5f5f5f1b5f995099509950995099505050505050610b36565b809150505f841480610b0257508284115b15610b20575f84848484995099509950995099505050505050610b36565b6001848484849950995099509950995050505050505b91939590929450565b5f8173ffffffffffffffffffffffffffffffffffffffff16635624b25b5f60016040518363ffffffff1660e01b8152600401610b7c929190611eac565b5f60405180830381865afa925050508015610bb957506040513d5f823e3d601f19601f82011682018060405250810190610bb69190611f75565b60015b15610bdd576020815110610bdb5780610bd190611feb565b5f1c915050610be1565b505b5f90505b919050565b5f5f8273ffffffffffffffffffffffffffffffffffffffff1663cc2f84526001600a6040518363ffffffff1660e01b8152600401610c2592919061208a565b5f60405180830381865afa925050508015610c6257506040513d5f823e3d601f19601f82011682018060405250810190610c5f91906120b1565b60015b15610c9b57815182604051602001610c7a9190611e11565b60405160208183030381529060405280519060200120935093505050610ca4565b5f5f5f1b915091505b915091565b5f8173ffffffffffffffffffffffffffffffffffffffff16635624b25b7f4a204f620c8c5ccdca3fd54d003badd85ba500436a431f0cbda4f558c93c34c860016040518363ffffffff1660e01b8152600401610d0692919061210b565b5f60405180830381865afa925050508015610d4357506040513d5f823e3d601f19601f82011682018060405250810190610d409190611f75565b60015b15610d67576020815110610d655780610d5b90611feb565b5f1c915050610d6b565b505b5f90505b919050565b5f5f833b90505f8103610d86575f915050610e0c565b8373ffffffffffffffffffffffffffffffffffffffff166370a08231846040518263ffffffff1660e01b8152600401610dbf9190612132565b602060405180830381865afa925050508015610df957506040513d601f19601f82011682018060405250810190610df69190611c37565b60015b610e06575f915050610e0c565b80925050505b92915050565b5f604051905090565b5f5ffd5b5f5ffd5b5f5ffd5b5f5ffd5b5f5ffd5b5f5f83601f840112610e4457610e43610e23565b5b8235905067ffffffffffffffff811115610e6157610e60610e27565b5b602083019150836020820283011115610e7d57610e7c610e2b565b5b9250929050565b5f5f60208385031215610e9a57610e99610e1b565b5b5f83013567ffffffffffffffff811115610eb757610eb6610e1f565b5b610ec385828601610e2f565b92509250509250929050565b5f8115159050919050565b610ee381610ecf565b82525050565b5f81519050919050565b5f82825260208201905092915050565b8281835e5f83830152505050565b5f601f19601f8301169050919050565b5f610f2b82610ee9565b610f358185610ef3565b9350610f45818560208601610f03565b610f4e81610f11565b840191505092915050565b5f604082019050610f6c5f830185610eda565b8181036020830152610f7e8184610f21565b90509392505050565b5f6020820190508181035f830152610f9f8184610f21565b905092915050565b7f4e487b71000000000000000000000000000000000000000000000000000000005f52603260045260245ffd5b5f5ffd5b5f5ffd5b5f5ffd5b5f5f83356001602003843603038112610ffc57610ffb610fd4565b5b80840192508235915067ffffffffffffffff82111561101e5761101d610fd8565b5b60208301925060018202360383131561103a57611039610fdc565b5b509250929050565b5f5ffd5b7f4e487b71000000000000000000000000000000000000000000000000000000005f52604160045260245ffd5b61107c82610f11565b810181811067ffffffffffffffff8211171561109b5761109a611046565b5b80604052505050565b5f6110ad610e12565b90506110b98282611073565b919050565b6110c781610ecf565b81146110d1575f5ffd5b50565b5f813590506110e2816110be565b92915050565b5f73ffffffffffffffffffffffffffffffffffffffff82169050919050565b5f611111826110e8565b9050919050565b61112181611107565b811461112b575f5ffd5b50565b5f8135905061113c81611118565b92915050565b5f819050919050565b61115481611142565b811461115e575f5ffd5b50565b5f8135905061116f8161114b565b92915050565b5f819050919050565b61118781611175565b8114611191575f5ffd5b50565b5f813590506111a28161117e565b92915050565b5f6101c082840312156111be576111bd611042565b5b6111c96101c06110a4565b90505f6111d8848285016110d4565b5f8301525060206111eb8482850161112e565b60208301525060406111ff84828501611161565b604083015250606061121384828501611161565b606083015250608061122784828501611194565b60808301525060a061123b84828501611161565b60a08301525060c061124f84828501611161565b60c08301525060e061126384828501611194565b60e0830152506101006112788482850161112e565b6101008301525061012061128e84828501611161565b610120830152506101406112a484828501611161565b610140830152506101606112ba84828501611161565b610160830152506101806112d084828501611161565b610180830152506101a06112e684828501611161565b6101a08301525092915050565b5f6101c0828403121561130957611308610e1b565b5b5f611316848285016111a8565b91505092915050565b5f82825260208201905092915050565b7f435249544943414c3a205361666520696d706c656d656e746174696f6e20636f5f8201527f6d70726f6d697365640000000000000000000000000000000000000000000000602082015250565b5f61138960298361131f565b91506113948261132f565b604082019050919050565b6113a881611142565b82525050565b5f6060820190508181035f8301526113c58161137d565b90506113d4602083018561139f565b6113e1604083018461139f565b9392505050565b7f435249544943414c3a206d6173746572436f7079206368616e676564000000005f82015250565b5f61141c601c8361131f565b9150611427826113e8565b602082019050919050565b61143b81611107565b82525050565b5f6060820190508181035f83015261145881611410565b90506114676020830185611432565b6114746040830184611432565b9392505050565b7f435249544943414c3a206d6f64756c6573206368616e676564000000000000005f82015250565b5f6114af60198361131f565b91506114ba8261147b565b602082019050919050565b5f6060820190508181035f8301526114dc816114a3565b90506114eb602083018561139f565b6114f8604083018461139f565b9392505050565b7f435249544943414c3a206775617264206368616e6765640000000000000000005f82015250565b5f61153360178361131f565b915061153e826114ff565b602082019050919050565b5f6060820190508181035f83015261156081611527565b905061156f6020830185611432565b61157c6040830184611432565b9392505050565b7f435249544943414c3a205361666520636f6e666967206368616e6765640000005f82015250565b5f6115b7601d8361131f565b91506115c282611583565b602082019050919050565b5f60a0820190508181035f8301526115e4816115ab565b90506115f3602083018761139f565b611600604083018661139f565b61160d606083018561139f565b61161a608083018461139f565b95945050505050565b7f4e487b71000000000000000000000000000000000000000000000000000000005f52601160045260245ffd5b5f61165a82611142565b915061166583611142565b925082820390508181111561167d5761167c611623565b5b92915050565b5f61168d82611142565b915061169883611142565b92508282026116a681611142565b915082820484148315176116bd576116bc611623565b5b5092915050565b7f4e487b71000000000000000000000000000000000000000000000000000000005f52601260045260245ffd5b5f6116fb82611142565b915061170683611142565b925082611716576117156116c4565b5b828204905092915050565b7f435249544943414c3a2062616c616e636520647261696e2064657465637465645f82015250565b5f61175560208361131f565b915061176082611721565b602082019050919050565b5f6080820190508181035f83015261178281611749565b9050611791602083018661139f565b61179e604083018561139f565b6117ab606083018461139f565b949350505050565b5f815190506117c1816110be565b92915050565b5f815190506117d581611118565b92915050565b5f815190506117e98161114b565b92915050565b5f815190506117fd8161117e565b92915050565b5f6101c0828403121561181957611818611042565b5b6118246101c06110a4565b90505f611833848285016117b3565b5f830152506020611846848285016117c7565b602083015250604061185a848285016117db565b604083015250606061186e848285016117db565b6060830152506080611882848285016117ef565b60808301525060a0611896848285016117db565b60a08301525060c06118aa848285016117db565b60c08301525060e06118be848285016117ef565b60e0830152506101006118d3848285016117c7565b610100830152506101206118e9848285016117db565b610120830152506101406118ff848285016117db565b61014083015250610160611915848285016117db565b6101608301525061018061192b848285016117db565b610180830152506101a0611941848285016117db565b6101a08301525092915050565b5f6101c0828403121561196457611963610e1b565b5b5f61197184828501611803565b91505092915050565b7f5741524e494e473a206772616475616c20647261696e206465746563746564005f82015250565b5f6119ae601f8361131f565b91506119b98261197a565b602082019050919050565b5f6080820190508181035f8301526119db816119a2565b90506119ea602083018661139f565b6119f7604083018561139f565b611a04606083018461139f565b949350505050565b7f5741524e494e473a206e6f6e6365206a756d70206465746563746564000000005f82015250565b5f611a40601c8361131f565b9150611a4b82611a0c565b602082019050919050565b5f6060820190508181035f830152611a6d81611a34565b9050611a7c602083018561139f565b611a89604083018461139f565b9392505050565b5f611a9a82611142565b9150611aa583611142565b9250828201905080821115611abd57611abc611623565b5b92915050565b611acc81610ecf565b82525050565b611adb81611107565b82525050565b611aea81611142565b82525050565b611af981611175565b82525050565b6101c082015f820151611b145f850182611ac3565b506020820151611b276020850182611ad2565b506040820151611b3a6040850182611ae1565b506060820151611b4d6060850182611ae1565b506080820151611b606080850182611af0565b5060a0820151611b7360a0850182611ae1565b5060c0820151611b8660c0850182611ae1565b5060e0820151611b9960e0850182611af0565b50610100820151611bae610100850182611ad2565b50610120820151611bc3610120850182611ae1565b50610140820151611bd8610140850182611ae1565b50610160820151611bed610160850182611ae1565b50610180820151611c02610180850182611ae1565b506101a0820151611c176101a0850182611ae1565b50505050565b5f6101c082019050611c315f830184611aff565b92915050565b5f60208284031215611c4c57611c4b610e1b565b5b5f611c59848285016117db565b91505092915050565b5f67ffffffffffffffff821115611c7c57611c7b611046565b5b602082029050602081019050919050565b5f611c9f611c9a84611c62565b6110a4565b90508083825260208201905060208402830185811115611cc257611cc1610e2b565b5b835b81811015611ceb5780611cd788826117c7565b845260208401935050602081019050611cc4565b5050509392505050565b5f82601f830112611d0957611d08610e23565b5b8151611d19848260208601611c8d565b91505092915050565b5f60208284031215611d3757611d36610e1b565b5b5f82015167ffffffffffffffff811115611d5457611d53610e1f565b5b611d6084828501611cf5565b91505092915050565b5f81519050919050565b5f82825260208201905092915050565b5f819050602082019050919050565b5f611d9d8383611ad2565b60208301905092915050565b5f602082019050919050565b5f611dbf82611d69565b611dc98185611d73565b9350611dd483611d83565b805f5b83811015611e04578151611deb8882611d92565b9750611df683611da9565b925050600181019050611dd7565b5085935050505092915050565b5f6020820190508181035f830152611e298184611db5565b905092915050565b5f819050919050565b5f819050919050565b5f611e5d611e58611e5384611e31565b611e3a565b611142565b9050919050565b611e6d81611e43565b82525050565b5f819050919050565b5f611e96611e91611e8c84611e73565b611e3a565b611142565b9050919050565b611ea681611e7c565b82525050565b5f604082019050611ebf5f830185611e64565b611ecc6020830184611e9d565b9392505050565b5f5ffd5b5f67ffffffffffffffff821115611ef157611ef0611046565b5b611efa82610f11565b9050602081019050919050565b5f611f19611f1484611ed7565b6110a4565b905082815260208101848484011115611f3557611f34611ed3565b5b611f40848285610f03565b509392505050565b5f82601f830112611f5c57611f5b610e23565b5b8151611f6c848260208601611f07565b91505092915050565b5f60208284031215611f8a57611f89610e1b565b5b5f82015167ffffffffffffffff811115611fa757611fa6610e1f565b5b611fb384828501611f48565b91505092915050565b5f819050602082019050919050565b5f611fd68251611175565b80915050919050565b5f82821b905092915050565b5f611ff582610ee9565b82611fff84611fbc565b905061200a81611fcb565b9250602082101561204a576120457fffffffffffffffffffffffffffffffffffffffffffffffffffffffffffffffff83602003600802611fdf565b831692505b5050919050565b5f819050919050565b5f61207461206f61206a84612051565b611e3a565b611142565b9050919050565b6120848161205a565b82525050565b5f60408201905061209d5f830185611432565b6120aa602083018461207b565b9392505050565b5f5f604083850312156120c7576120c6610e1b565b5b5f83015167ffffffffffffffff8111156120e4576120e3610e1f565b5b6120f085828601611cf5565b9250506020612101858286016117c7565b9150509250929050565b5f60408201905061211e5f83018561139f565b61212b6020830184611e9d565b9392505050565b5f6020820190506121455f830184611432565b9291505056fea26469706673582212207b2f3942ec37cbae0f175a15422b711004f25c83c6a5d2c854db35e91dd8e27264736f6c63430008210033","linkReferences":{}},"methodIdentifiers":{"collect()":"e5225381","shouldRespond(bytes[])":"44e6e4ce"},"id":24}