{"abi":[{"type":"function","name":"collect","inputs":[],"outputs":[{"name":"","type":"bytes","internalType":"bytes"}],"stateMutability":"view"},{"type":"function","name":"shouldRespond","inputs":[{"name":"data","type":"bytes[]","internalType":"bytes[]"}],"outputs":[{"name":"","type":"bool","internalType":"bool"},{"name":"","type":"bytes","internalType":"bytes"}],"stateMutability":"pure"}],"bytecode":{"object":"0x60808060405234601557611257908161001a8239f35b5f80fdfe60806040526004361015610011575f80fd5b5f3560e01c806344e6e4ce1461030f5763e52253811461002f575f80fd5b3461030b575f36600319011261030b57610047610d48565b93929190610053610f9f565b945f806001815b600a81106101e4575b505061006d61102a565b915f5160206112025f395f51905f52319361008661108a565b9561008f61112f565b97610098611198565b998a8a6100a58b8b610c8f565b906100af91610c8f565b906100b991610c8f565b9b604051906100c7826103ab565b151590818152602081019e8f90600160a01b6001900316905260408101928352606081019384526080810194855260a0810195865260c0810196875260e08101978852610100810198600160a01b600190031689526101208101998a5261014081019a8b5261016081019b8c5261018081019c8d526101a0019c8d526040519d8e916020830152600160a01b6001900390511690604001525160608d01525160808c01525160a08b01525160c08a01525160e089015251610100880152600160a01b60019003905116610120870152516101408601525161016085015251610180840152516101a0830152516101c08201526101c081526101ca6101e0826103dc565b604051809160208252602082016101e091610387565b0390f35b604051636617c22960e11b81526001600160a01b039092166004830152600a60248301525f826044815f5160206112025f395f51905f525afa805f935f926102bb575b506102325750610063565b9091929361024290845190610c8f565b9360405160208101918252604080820152610272816102646060820188610d0c565b03601f1981018352826103dc565b519020926001600160a01b03821660018114919082156102b2575b5081156102a8575b506102a3579060010161005a565b610063565b905051155f610295565b1591505f61028d565b935090503d805f853e6102ce81856103dc565b830160408482031261030b5783519067ffffffffffffffff821161030b576102fd602091610304938701610c9c565b94016105c3565b905f610227565b5f80fd5b3461030b57602036600319011261030b5760043567ffffffffffffffff811161030b573660238201121561030b57806004013567ffffffffffffffff811161030b573660248260051b8401011161030b57602461036c92016105d7565b906101e0604051928392151583526040602084015260408301905b805180835260209291819084018484015e5f828201840152601f01601f1916010190565b6101c0810190811067ffffffffffffffff8211176103c857604052565b634e487b7160e01b5f52604160045260245ffd5b90601f8019910116810190811067ffffffffffffffff8211176103c857604052565b67ffffffffffffffff81116103c857601f01601f191660200190565b901561045557803590601e198136030182121561030b57019081359167ffffffffffffffff831161030b57602001823603811361030b579190565b634e487b7160e01b5f52603260045260245ffd5b906001101561045557602081013590601e198136030182121561030b57019081359167ffffffffffffffff831161030b57602001823603811361030b579190565b35906001600160a01b038216820361030b57565b90816101c091031261030b57604051906104d7826103ab565b803590811515820361030b576101a09183526104f5602082016104aa565b602084015260408101356040840152606081013560608401526080810135608084015260a081013560a084015260c081013560c084015260e081013560e084015261054361010082016104aa565b61010084015261012081013561012084015261014081013561014084015261016081013561016084015261018081013561018084015201356101a082015290565b9190820391821161059157565b634e487b7160e01b5f52601160045260245ffd5b81156105af570490565b634e487b7160e01b5f52601260045260245ffd5b51906001600160a01b038216820361030b57565b6002821061069f576101c06105ec838361041a565b9050108015610c79575b61069f5761060f610607838361041a565b8101906104be565b9061061d6106078483610469565b92825115610c295760208301516001600160a01b031680151580610c0b575b610bae57508351151580610ba4575b610b28575b8351151580610b1e575b610aac575b8351151580610aa2575b6109fc575b6101a084018051801515806109ee575b610959575b50506002811161074f575b50508151151580610745575b6106b7575b50505f906040516106b16020826103dc565b5f815290565b60a0019060a082519101908151808211918261072f575b50501561069f5761071b9291610729915190516040519160208301526040820152604081526106fe6060826103dc565b604051938491600860208401526040808401526060830190610387565b03601f1981018452836103dc565b60019190565b600592509061073d91610584565b115f806106ce565b508051151561069a565b5f19810190808211610591578110156104555760051b81013590601e198136030182121561030b5701803567ffffffffffffffff811161030b576020820190803603821361030b576107a0816103fe565b916107ae60405193846103dc565b8183526020830193602083369201011161030b57815f9260209286378301015280516101c08110156107e1575b5061068e565b816101c0918101031261030b57604051916107fb836103ab565b51801515810361030b576101a0916101c091845261081b604082016105c3565b6020850152606081015160408501526080810151606085015260a0810151608085015260c081015160a085015260e081015160c085015261010081015160e085015261086a61012082016105c3565b6101008501526101408101516101208501526101608101516101408501526101808101516101608501528281015161018085015201519101908082528015158061094b575b6108ba575b806107db565b6108cb6101a0840191825190610584565b61271081029080820461271014901517156105915782516108eb916105a5565b916105dc8310156108fc57506108b4565b519051604080516020810193909352820152606081019190915261071b939250610729915061092e8160808101610264565b604051938491600760208401526040808401526060830190610387565b50806101a0840151106108af565b61096a6101a0860191825190610584565b612710810290808204612710149015171561059157825161098a916105a5565b916101f483101561099b5750610683565b519051604080516020810193909352820152606081019190915261071b959450610729935091506109d190508160808101610264565b604051938491600660208401526040808401526060830190610387565b50806101a08601511061067e565b6040830151604085015190818114801590610a90575b8015610a7e575b610a2457505061066e565b915091506107299260608061071b979601519101519160405193602085015260408401526060830152608082015260808152610a6160a0826103dc565b604051938491600560208401526040808401526060830190610387565b50608085015160808701511415610a19565b50606085015160608701511415610a12565b5082511515610669565b61010083810151908501516001600160a01b039081169116818103610ad257505061065f565b60408051602081019390935282810191909152815261071b95945061072993509150610b0190506060826103dc565b604051938491600460208401526040808401526060830190610387565b508251151561065a565b60c083015160c085015190818114801590610b92575b610b49575050610650565b9150915061071b9493506107299250604051916020830152604082015260408152610b756060826103dc565b604051938491600360208401526040808401526060830190610387565b5060e085015160e08701511415610b3e565b508251151561064b565b91505061071b9392506107299150604051907334cfac646f301356faa8b21e94227e3583fe3f5f6020830152604082015260408152610bee6060826103dc565b604051938491600260208401526040808401526060830190610387565b507334cfac646f301356faa8b21e94227e3583fe3f5f81141561063c565b505061071b9291508060606040610729930151910151604051916020830152604082015260408152610c5c6060826103dc565b604051938491600160208401526040808401526060830190610387565b506101c0610c878383610469565b9050106105f6565b9190820180921161059157565b9080601f8301121561030b5781519167ffffffffffffffff83116103c8578260051b9060405193610cd060208401866103dc565b845260208085019282010192831161030b57602001905b828210610cf45750505090565b60208091610d01846105c3565b815201910190610ce7565b90602080835192838152019201905f5b818110610d295750505090565b82516001600160a01b0316845260209384019390920191600101610d1c565b5f5160206112025f395f51905f523b15610f0e57604051631cea46b760e31b81526020816004815f5160206112025f395f51905f525afa5f9181610eda575b50610d9957505f905f905f905f905f90565b60405163a0e67e2b60e01b81525f816004815f5160206112025f395f51905f525afa5f9181610e9a575b50610dd65750505f905f905f905f905f90565b805190604051610df6816102646020820194602086526040830190610d0c565b51902060405163057ff68760e51b81526020816004815f5160206112025f395f51905f525afa5f9181610e66575b50610e3957505050505f905f905f905f905f90565b93909192939084158015610e5d575b610e555760019493929190565b5f9493929190565b50838511610e48565b9091506020813d602011610e92575b81610e82602093836103dc565b8101031261030b5751905f610e24565b3d9150610e75565b9091503d805f833e610eac81836103dc565b810160208282031261030b57815167ffffffffffffffff811161030b57610ed39201610c9c565b905f610dc3565b9091506020813d602011610f06575b81610ef6602093836103dc565b8101031261030b5751905f610d87565b3d9150610ee9565b5f905f905f905f905f90565b60208183031261030b5780519067ffffffffffffffff821161030b570181601f8201121561030b57805190610f4e826103fe565b92610f5c60405194856103dc565b8284526020838301011161030b57815f9260208093018386015e8301015290565b602081519101519060208110610f91575090565b5f199060200360031b1b1690565b604051635624b25b60e01b81525f6004820181905260016024830152816044815f5160206112025f395f51905f525afa5f9181611006575b50610fe157505f90565b602081511015610ff057505f90565b6001600160a01b039061100290610f7d565b1690565b6110239192503d805f833e61101b81836103dc565b810190610f1a565b905f610fd7565b604051635624b25b60e01b81527f4a204f620c8c5ccdca3fd54d003badd85ba500436a431f0cbda4f558c93c34c86004820152600160248201525f816044815f5160206112025f395f51905f525afa5f91816110065750610fe157505f90565b73ae7ab96520de3a18e5e111b5eaab095312d7fe843b1561112b576040516370a0823160e01b81525f5160206112025f395f51905f52600482015260208160248173ae7ab96520de3a18e5e111b5eaab095312d7fe845afa5f91816110f7575b506110f457505f90565b90565b9091506020813d602011611123575b81611113602093836103dc565b8101031261030b5751905f6110ea565b3d9150611106565b5f90565b73d5f7838f5c461feff7fe49ea5ebaf7728bb0adfa3b1561112b576040516370a0823160e01b81525f5160206112025f395f51905f52600482015260208160248173d5f7838f5c461feff7fe49ea5ebaf7728bb0adfa5afa5f91816110f757506110f457505f90565b73e3c063b1bee9de02eb28352b55d49d85514c67ff3b1561112b576040516370a0823160e01b81525f5160206112025f395f51905f52600482015260208160248173e3c063b1bee9de02eb28352b55d49d85514c67ff5afa5f91816110f757506110f457505f9056fe0000000000000000000000001db92e2eebc8e0c075a02bea49a2935bcd2dfcf4a2646970667358221220b5867b704076a6c0d9288463fbd7f8a605f3a99c3d3a5b9133a59b7bfa57aae164736f6c63430008210033","linkReferences":{}},"methodIdentifiers":{"collect()":"e5225381","shouldRespond(bytes[])":"44e6e4ce"},"id":24}