{"abi":[{"type":"function","name":"CMETH","inputs":[],"outputs":[{"name":"","type":"address","internalType":"address"}],"stateMutability":"view"},{"type":"function","name":"EXPECTED_MASTER_COPY","inputs":[],"outputs":[{"name":"","type":"address","internalType":"address"}],"stateMutability":"view"},{"type":"function","name":"EXPECTED_OWNERS_HASH","inputs":[],"outputs":[{"name":"","type":"bytes32","internalType":"bytes32"}],"stateMutability":"view"},{"type":"function","name":"EXPECTED_OWNER_COUNT","inputs":[],"outputs":[{"name":"","type":"uint256","internalType":"uint256"}],"stateMutability":"view"},{"type":"function","name":"EXPECTED_THRESHOLD","inputs":[],"outputs":[{"name":"","type":"uint256","internalType":"uint256"}],"stateMutability":"view"},{"type":"function","name":"METH","inputs":[],"outputs":[{"name":"","type":"address","internalType":"address"}],"stateMutability":"view"},{"type":"function","name":"SAFE_PROXY","inputs":[],"outputs":[{"name":"","type":"address","internalType":"address"}],"stateMutability":"view"},{"type":"function","name":"STETH","inputs":[],"outputs":[{"name":"","type":"address","internalType":"address"}],"stateMutability":"view"},{"type":"function","name":"collect","inputs":[],"outputs":[{"name":"","type":"bytes","internalType":"bytes"}],"stateMutability":"view"},{"type":"function","name":"shouldRespond","inputs":[{"name":"data","type":"bytes[]","internalType":"bytes[]"}],"outputs":[{"name":"","type":"bool","internalType":"bool"},{"name":"","type":"bytes","internalType":"bytes"}],"stateMutability":"pure"}],"bytecode":{"object":"0x60808060405234601557611aca908161001a8239f35b5f80fdfe610100806040526004361015610013575f80fd5b5f3560e01c9081633ea26320146104c25750806344e6e4ce14610448578063515a4b5e1461042e5780635549c9e7146104135780635c461608146103e5578063857785eb146103ca578063abf38c61146103a3578063bd96caf014610375578063e00bfe50146103475763e52253811461008b575f80fd5b34610343575f366003190112610343576100a361145f565b6100b094939192946116d1565b9060c052946100bd611764565b93919590926100ca61189b565b9690995f516020611a755f395f51905f5231986100e56118fd565b9b8c9b6100f06119a2565b9d8e6100fa611a0b565b60e0528d60e0519261010b916105f4565b90610115916105f4565b9061011f916105f4565b60805260405160a05260a05161013490610512565b60a0515f516020611a755f395f51905f5290524360a05160200152151560a0516040015260c051151560a05160600152151560a05160800152151560a05160a00152600160a01b600190031660a05160c0015260a05160e0015260a051610100015260a051610120015260a051610140015260a051610160015260a0516101800152600160a01b600190031660a0516101a0015260a0516101c0015260a0516101e0015260a051610200015260e05160a051610220015260805160a0516102400152604051602081015f516020611a755f395f51905f52905260a05160200151604082015260a051604001511515606082015260a051606001511515608082015260a05160800151151560a082015260a05160a00151151560c0820152600160a01b6001900360a05160c001511660e082015260a05160e0015161010082015260a051610100015161012082015260a051610120015161014082015260a051610140015161016082015260a051610160015161018082015260a05161018001516101a0820152600160a01b6001900360a0516101a00151166101c082015260a0516101c001516101e082015260a0516101e0015161020082015260a051610200015161022082015260a051610220015161024082015260a051610240015161026082015261026081526103296102808261055d565b6040518091602082526020820161033f916104ee565b0390f35b5f80fd5b34610343575f36600319011261034357602060405173ae7ab96520de3a18e5e111b5eaab095312d7fe848152f35b34610343575f3660031901126103435760206040517334cfac646f301356faa8b21e94227e3583fe3f5f8152f35b34610343575f3660031901126103435760206040515f516020611a755f395f51905f528152f35b34610343575f36600319011261034357602060405160038152f35b34610343575f36600319011261034357602060405173e3c063b1bee9de02eb28352b55d49d85514c67ff8152f35b34610343575f36600319011261034357602060405160068152f35b34610343575f3660031901126103435760206040515f8152f35b34610343576020366003190112610343576004356001600160401b03811161034357366023820112156103435780600401356001600160401b038111610343573660248260051b840101116103435760246104a3920161061f565b9061033f604051928392151583526040602084015260408301906104ee565b34610343575f366003190112610343578073d5f7838f5c461feff7fe49ea5ebaf7728bb0adfa60209252f35b805180835260209291819084018484015e5f828201840152601f01601f1916010190565b61026081019081106001600160401b0382111761052e57604052565b634e487b7160e01b5f52604160045260245ffd5b60a081019081106001600160401b0382111761052e57604052565b90601f801991011681019081106001600160401b0382111761052e57604052565b91908110156105bf5760051b81013590601e19813603018212156103435701908135916001600160401b038311610343576020018236038113610343579190565b634e487b7160e01b5f52603260045260245ffd5b919082039182116105e057565b634e487b7160e01b5f52601160045260245ffd5b919082018092116105e057565b811561060b570490565b634e487b7160e01b5f52601260045260245ffd5b919091600283108015611132575b6111215782156105bf5736819003601e1901928135848112156103435782018035906001600160401b03821161034357602001908036038213610343576106739161115d565b9381600110156105bf576020830135908112156103435782018035906001600160401b03821161034357602001908036038213610343576106b39161115d565b84519092906001600160a01b0316801590811561110c575b506110f85760015b82811061104b57506060850151158015908161103f575b8015611033575b610f6c5750604085015115610e995760c08501516001600160a01b03167334cfac646f301356faa8b21e94227e3583fe3f5e198101610dd2575060e08501805160038114801590610dc2575b8015610dbb575b610d6e57506101a086810151908501516001600160a01b039081169116818103610cba57505060a0840151151580610c93575b610bbe575160e084015190818114801590610baa575b8015610b96575b610b375750506102408301805180151580610b29575b610a2a575b50505f1982018281116105e0576107cf926107c99261057e565b9061115d565b610240810190815180151580610a1c575b610913575b5050506101408301928351610140830190815180821191826108fd575b50506108245750505090506040519061081c60208361055d565b5f82525f9190565b51935160405194602086015260408501526040845261084460608561055d565b60208082519201519201516040519461085c86610542565b60098652602086019260018060a01b03168352604086019384526060860191825260808601908152604051956020808801525191600a8310156108e9576108e39487946108d594604087015260018060a01b0390511660608601525160808501525160a08401525160a060c084015260e08301906104ee565b03601f19810184528361055d565b60019190565b634e487b7160e01b5f52602160045260245ffd5b600592509061090b916105d3565b115f80610802565b6109246102408701918251906105d3565b61271081029080820461271014901517156105e057835161094491610601565b926105dc84101561095557506107e5565b5190516040805160208101939093528201526060810192909252909390915061098b84608081015b03601f19810186528561055d565b6020808251920151920151604051946109a386610542565b60088652602086019260018060a01b03168352604086019384526060860191825260808601908152604051956020808801525191600a8310156108e9576108e39487946108d594604087015260018060a01b0390511660608601525160808501525160a08401525160a060c084015260e08301906104ee565b5080610240870151106107e0565b610a3b6102408801918251906105d3565b61271081029080820461271014901517156105e0578251610a5b91610601565b916101f4831015610a6c57506107af565b5190516040805160208101939093528201526060810191909152949150610a989050846080810161097d565b602080825192015192015160405194610ab086610542565b60078652602086019260018060a01b03168352604086019384526060860191825260808601908152604051956020808801525191600a8310156108e9576108e39487946108d594604087015260018060a01b0390511660608601525160808501525160a08401525160a060c084015260e08301906104ee565b5080610240880151106107aa565b90939250610b9294959150610100830151610100830151610120850151916101208501519360405197602089015260408801526060870152608086015260a085015260c084015260c08352610b8d60e08461055d565b61130c565b9091565b506101208701516101208601511415610794565b50610100870151610100860151141561078d565b505050610160810151926101608101516101808301516101808301519160405196602088015260408701526060860152608085015260808452610c0260a08561055d565b602080825192015192015160405194610c1a86610542565b60048652602086019260018060a01b03168352604086019384526060860191825260808601908152604051956020808801525191600a8310156108e9576108e39487946108d594604087015260018060a01b0390511660608601525160808501525160a08401525160a060c084015260e08301906104ee565b50610160868101519085015114158061077757506101808601516101808501511415610777565b925095925050604051946020860152604085015260408452610cdd60608561055d565b602080825192015192015160405194610cf586610542565b60058652602086019260018060a01b03168352604086019384526060860191825260808601908152604051956020808801525191600a8310156108e9576108e39487946108d594604087015260018060a01b0390511660608601525160808501525160a08401525160a060c084015260e08301906104ee565b939250505083610100610b929495015161012082015190604051946003602087015260408601526006606086015260808501525f60a085015260c084015260c08352610b8d60e08461055d565b505f610744565b506006610100880151141561073d565b94915050604051937334cfac646f301356faa8b21e94227e3583fe3f5f6020860152604085015260408452610e0860608561055d565b602080825192015192015160405194610e2086610542565b60038652602086019260018060a01b03168352604086019384526060860191825260808601908152604051956020808801525191600a8310156108e9576108e39487946108d594604087015260018060a01b0390511660608601525160808501525160a08401525160a060c084015260e08301906104ee565b505060e0830151926101008101516101208201516101408301519160405196602088015260408701526060860152608085015260808452610edb60a08561055d565b602080825192015192015160405194610ef386610542565b60028652602086019260018060a01b03168352604086019384526060860191825260808601908152604051956020808801525191600a8310156108e9576108e39487946108d594604087015260018060a01b0390511660608601525160808501525160a08401525160a060c084015260e08301906104ee565b94809250608091500151151560a08201511515906040519560208701526040860152606085015260608452610fa260808561055d565b602080825192015192015160405194610fba86610542565b60018652602086019260018060a01b03168352604086019384526060860191825260808601908152604051956020808801525191600a8310156108e9576108e39487946108d594604087015260018060a01b0390511660608601525160808501525160a08401525160a060c084015260e08301906104ee565b5060a0860151156106f1565b506080860151156106ea565b5f1981018181116105e0576107c961106491858561057e565b60206110746107c984878761057e565b9101519081159182156110eb575b82156110ce575b5081156110b4575b5061109e576001016106d3565b50505050905060209061081c604051928361055d565b5187516001600160a01b039081169116141590505f611091565b909150602082015190600182018092116105e0571415905f611089565b6020820151159250611082565b50505090506040519061081c60208361055d565b84516001600160a01b0316141590505f6106cb565b50604051915061081c60208361055d565b50600a831161062d565b35906001600160a01b038216820361034357565b3590811515820361034357565b9060405161116a81610512565b5f81525f60208201525f60408201525f60608201525f60808201525f60a08201525f60c08201525f60e08201525f6101008201525f6101208201525f6101408201525f6101608201525f6101808201525f6101a08201525f6101c08201525f6101e08201525f6102008201525f6102208201525f61024082015281156113065750816102609181010312610343576102406040519161120883610512565b6112118161113c565b83526020810135602084015261122960408201611150565b604084015261123a60608201611150565b606084015261124b60808201611150565b608084015261125c60a08201611150565b60a084015261126d60c0820161113c565b60c084015260e081013560e08401526101008101356101008401526101208101356101208401526101408101356101408401526101608101356101608401526101808101356101808401526112c56101a0820161113c565b6101a08401526101c08101356101c08401526101e08101356101e0840152610200810135610200840152610220810135610220840152013561024082015290565b91505090565b92919260208082519201519201516040519461132786610542565b60068652602086019260018060a01b03168352604086019384526060860191825260808601908152604051956020808801525191600a8310156108e9576108e39487946108d594604087015260018060a01b0390511660608601525160808501525160a08401525160a060c084015260e08301906104ee565b51906001600160a01b038216820361034357565b9080601f83011215610343578151916001600160401b03831161052e578260051b90604051936113e7602084018661055d565b845260208085019282010192831161034357602001905b82821061140b5750505090565b60208091611418846113a0565b8152019101906113fe565b90602080835192838152019201905f5b8181106114405750505090565b82516001600160a01b0316845260209384019390920191600101611433565b5f516020611a755f395f51905f523b1561163257604051631cea46b760e31b81526020816004815f516020611a755f395f51905f525afa5f91816115fe575b506114b057505f905f905f905f905f90565b60405163a0e67e2b60e01b81525f816004815f516020611a755f395f51905f525afa5f91816115bf575b506114ed5750505f905f905f905f905f90565b80519060405161151b8161150d6020820194602086526040830190611423565b03601f19810183528261055d565b51902060405163057ff68760e51b81526020816004815f516020611a755f395f51905f525afa5f918161158b575b5061155e57505050505f905f905f905f905f90565b93909192939084158015611582575b61157a5760019493929190565b5f9493929190565b5083851161156d565b9091506020813d6020116115b7575b816115a76020938361055d565b810103126103435751905f611549565b3d915061159a565b9091503d805f833e6115d1818361055d565b81016020828203126103435781516001600160401b038111610343576115f792016113b4565b905f6114da565b9091506020813d60201161162a575b8161161a6020938361055d565b810103126103435751905f61149e565b3d915061160d565b5f905f905f905f905f90565b602081830312610343578051906001600160401b038211610343570181601f82011215610343578051906001600160401b03821161052e576040519261168e601f8401601f19166020018561055d565b8284526020838301011161034357815f9260208093018386015e8301015290565b6020815191015190602081106116c3575090565b5f199060200360031b1b1690565b604051635624b25b60e01b81525f6004820181905260016024830152816044815f516020611a755f395f51905f525afa5f9181611740575b5061171557505f905f90565b60208151101561172657505f905f90565b6001600160a01b0390611738906116af565b169060019190565b61175d9192503d805f833e611755818361055d565b81019061163e565b905f611709565b60015f915f915f5b600a811061177c5750505f929190565b604051636617c22960e11b81526001600160a01b039092166004830152600a60248301525f826044815f516020611a755f395f51905f525afa805f935f9261184c575b506117cd575050505f929190565b909193946117dd908551906105f4565b94604051602081019182526040808201526117ff8161150d6060820189611423565b519020936001600160a01b0382166001811491908215611843575b508115611839575b50611830579060010161176c565b50506001929190565b905051155f611822565b1591505f61181a565b935090503d805f853e61185f818561055d565b8301604084820312610343578351906001600160401b0382116103435761188d6020916118949387016113b4565b94016113a0565b905f6117bf565b604051635624b25b60e01b81527f4a204f620c8c5ccdca3fd54d003badd85ba500436a431f0cbda4f558c93c34c86004820152600160248201525f816044815f516020611a755f395f51905f525afa5f9181611740575061171557505f905f90565b73ae7ab96520de3a18e5e111b5eaab095312d7fe843b1561199e576040516370a0823160e01b81525f516020611a755f395f51905f52600482015260208160248173ae7ab96520de3a18e5e111b5eaab095312d7fe845afa5f918161196a575b5061196757505f90565b90565b9091506020813d602011611996575b816119866020938361055d565b810103126103435751905f61195d565b3d9150611979565b5f90565b73d5f7838f5c461feff7fe49ea5ebaf7728bb0adfa3b1561199e576040516370a0823160e01b81525f516020611a755f395f51905f52600482015260208160248173d5f7838f5c461feff7fe49ea5ebaf7728bb0adfa5afa5f918161196a575061196757505f90565b73e3c063b1bee9de02eb28352b55d49d85514c67ff3b1561199e576040516370a0823160e01b81525f516020611a755f395f51905f52600482015260208160248173e3c063b1bee9de02eb28352b55d49d85514c67ff5afa5f918161196a575061196757505f9056fe0000000000000000000000001db92e2eebc8e0c075a02bea49a2935bcd2dfcf4a26469706673582212207e920a3a80d7aade7075dd1ca9a6c8800c7cf3846cdcc2286417f2d331b948ff64736f6c63430008210033","linkReferences":{}},"methodIdentifiers":{"CMETH()":"5c461608","EXPECTED_MASTER_COPY()":"bd96caf0","EXPECTED_OWNERS_HASH()":"515a4b5e","EXPECTED_OWNER_COUNT()":"5549c9e7","EXPECTED_THRESHOLD()":"857785eb","METH()":"3ea26320","SAFE_PROXY()":"abf38c61","STETH()":"e00bfe50","collect()":"e5225381","shouldRespond(bytes[])":"44e6e4ce"},"id":25}